{
  "_format": "hh-sol-artifact-1",
  "contractName": "EtherServiceFacet",
  "sourceName": "contracts/ether/EtherServiceFacet.sol",
  "abi": [
    {
      "anonymous": false,
      "inputs": [
        {
          "indexed": false,
          "internalType": "address payable",
          "name": "to",
          "type": "address"
        },
        {
          "indexed": false,
          "internalType": "uint256",
          "name": "amount",
          "type": "uint256"
        }
      ],
      "name": "EtherTransfered",
      "type": "event"
    },
    {
      "anonymous": false,
      "inputs": [
        {
          "indexed": true,
          "internalType": "address",
          "name": "previousOwner",
          "type": "address"
        },
        {
          "indexed": true,
          "internalType": "address",
          "name": "newOwner",
          "type": "address"
        }
      ],
      "name": "OwnershipTransferred",
      "type": "event"
    },
    {
      "inputs": [],
      "name": "etherServiceFacetVersion",
      "outputs": [
        {
          "internalType": "string",
          "name": "",
          "type": "string"
        }
      ],
      "stateMutability": "pure",
      "type": "function"
    },
    {
      "inputs": [],
      "name": "getEtherBalance",
      "outputs": [
        {
          "internalType": "uint256",
          "name": "",
          "type": "uint256"
        }
      ],
      "stateMutability": "view",
      "type": "function"
    },
    {
      "inputs": [
        {
          "internalType": "address payable",
          "name": "to",
          "type": "address"
        },
        {
          "internalType": "uint256",
          "name": "amount",
          "type": "uint256"
        }
      ],
      "name": "transferEther",
      "outputs": [
        {
          "internalType": "bool",
          "name": "",
          "type": "bool"
        }
      ],
      "stateMutability": "nonpayable",
      "type": "function"
    }
  ],
  "bytecode": "0x608060405234801561001057600080fd5b50610337806100206000396000f3fe608060405234801561001057600080fd5b50600436106100415760003560e01c806305b1137b1461004657806376f622381461006e578063ea46193e1461009b575b600080fd5b610059610054366004610274565b6100a9565b60405190151581526020015b60405180910390f35b604080518082018252600b81526a302e312e302e616c70686160a81b6020820152905161006591906102ac565b604051478152602001610065565b60007f8a22373512790c48b83a1fe2efdd2888d4a917bcdc24d0adf63e60f671680460546001600160a01b031633146101295760405162461bcd60e51b815260206004820152601d60248201527f4f776e61626c653a2073656e646572206d757374206265206f776e657200000060448201526064015b60405180910390fd5b6001600160a01b0383166101985760405162461bcd60e51b815260206004820152603060248201527f45746865725365727669636546616365743a20746f206164726573732069732060448201526f746865207a65726f206164647265737360801b6064820152608401610120565b600082116101f25760405162461bcd60e51b815260206004820152602160248201527f45746865725365727669636546616365743a20616d6f756e74206973207a65726044820152606f60f81b6064820152608401610120565b6040516001600160a01b0384169083156108fc029084906000818181858888f19350505050158015610228573d6000803e3d6000fd5b50604080516001600160a01b0385168152602081018490527fcbbf9d8eccd82bfe565beb740ad23209888d91a194d1ad1eb4add4476e6be45c910160405180910390a150600192915050565b6000806040838503121561028757600080fd5b82356001600160a01b038116811461029e57600080fd5b946020939093013593505050565b600060208083528351808285015260005b818110156102d9578581018301518582016040015282016102bd565b818111156102eb576000604083870101525b50601f01601f191692909201604001939250505056fea26469706673582212209d03b317ce67a32d2139fcfe911e994e722728169ba985876abc4a9feca20d9064736f6c634300080e0033",
  "linkReferences": {},
  "deployedLinkReferences": {}
}