{
  "_format": "hh-sol-artifact-1",
  "contractName": "GuardianFacet",
  "sourceName": "contracts/facets/GuardianFacet.sol",
  "abi": [
    {
      "anonymous": false,
      "inputs": [
        {
          "indexed": true,
          "internalType": "uint256",
          "name": "groupId",
          "type": "uint256"
        },
        {
          "indexed": true,
          "internalType": "address",
          "name": "oldAdmin",
          "type": "address"
        },
        {
          "indexed": true,
          "internalType": "address",
          "name": "newAdmin",
          "type": "address"
        }
      ],
      "name": "GroupAdminUpdated",
      "type": "event"
    },
    {
      "anonymous": false,
      "inputs": [
        {
          "indexed": true,
          "internalType": "uint256",
          "name": "groupId",
          "type": "uint256"
        },
        {
          "indexed": false,
          "internalType": "uint8",
          "name": "depth",
          "type": "uint8"
        },
        {
          "indexed": false,
          "internalType": "uint256",
          "name": "zeroValue",
          "type": "uint256"
        }
      ],
      "name": "GroupCreated",
      "type": "event"
    },
    {
      "anonymous": false,
      "inputs": [
        {
          "indexed": true,
          "internalType": "uint256",
          "name": "hashId",
          "type": "uint256"
        },
        {
          "indexed": false,
          "internalType": "uint256",
          "name": "effectiveTime",
          "type": "uint256"
        }
      ],
      "name": "GuardianAdded",
      "type": "event"
    },
    {
      "anonymous": false,
      "inputs": [
        {
          "indexed": true,
          "internalType": "uint256",
          "name": "hashId",
          "type": "uint256"
        },
        {
          "indexed": false,
          "internalType": "uint256",
          "name": "effectiveTime",
          "type": "uint256"
        }
      ],
      "name": "GuardianRemoved",
      "type": "event"
    },
    {
      "anonymous": false,
      "inputs": [
        {
          "indexed": true,
          "internalType": "uint256",
          "name": "treeId",
          "type": "uint256"
        },
        {
          "indexed": false,
          "internalType": "uint256",
          "name": "leaf",
          "type": "uint256"
        },
        {
          "indexed": false,
          "internalType": "uint256",
          "name": "root",
          "type": "uint256"
        }
      ],
      "name": "LeafInserted",
      "type": "event"
    },
    {
      "anonymous": false,
      "inputs": [
        {
          "indexed": true,
          "internalType": "uint256",
          "name": "treeId",
          "type": "uint256"
        },
        {
          "indexed": false,
          "internalType": "uint256",
          "name": "leaf",
          "type": "uint256"
        },
        {
          "indexed": false,
          "internalType": "uint256",
          "name": "root",
          "type": "uint256"
        }
      ],
      "name": "LeafRemoved",
      "type": "event"
    },
    {
      "anonymous": false,
      "inputs": [
        {
          "indexed": true,
          "internalType": "uint256",
          "name": "groupId",
          "type": "uint256"
        },
        {
          "indexed": false,
          "internalType": "uint256",
          "name": "identityCommitment",
          "type": "uint256"
        },
        {
          "indexed": false,
          "internalType": "uint256",
          "name": "root",
          "type": "uint256"
        }
      ],
      "name": "MemberAdded",
      "type": "event"
    },
    {
      "anonymous": false,
      "inputs": [
        {
          "indexed": true,
          "internalType": "uint256",
          "name": "groupId",
          "type": "uint256"
        },
        {
          "indexed": false,
          "internalType": "uint256",
          "name": "identityCommitment",
          "type": "uint256"
        },
        {
          "indexed": false,
          "internalType": "uint256",
          "name": "root",
          "type": "uint256"
        }
      ],
      "name": "MemberRemoved",
      "type": "event"
    },
    {
      "anonymous": false,
      "inputs": [
        {
          "indexed": true,
          "internalType": "address",
          "name": "previousOwner",
          "type": "address"
        },
        {
          "indexed": true,
          "internalType": "address",
          "name": "newOwner",
          "type": "address"
        }
      ],
      "name": "OwnershipTransferred",
      "type": "event"
    },
    {
      "anonymous": false,
      "inputs": [
        {
          "indexed": false,
          "internalType": "uint256",
          "name": "id",
          "type": "uint256"
        },
        {
          "indexed": false,
          "internalType": "uint8",
          "name": "depth",
          "type": "uint8"
        }
      ],
      "name": "TreeCreated",
      "type": "event"
    },
    {
      "inputs": [
        {
          "internalType": "uint256",
          "name": "hashId",
          "type": "uint256"
        }
      ],
      "name": "addGuardian",
      "outputs": [
        {
          "internalType": "bool",
          "name": "",
          "type": "bool"
        }
      ],
      "stateMutability": "nonpayable",
      "type": "function"
    },
    {
      "inputs": [
        {
          "internalType": "uint256",
          "name": "groupId",
          "type": "uint256"
        },
        {
          "internalType": "uint256[]",
          "name": "identityCommitments",
          "type": "uint256[]"
        },
        {
          "components": [
            {
              "internalType": "uint256",
              "name": "hashId",
              "type": "uint256"
            }
          ],
          "internalType": "struct IGuardianInternal.GuardianDTO[]",
          "name": "guardians",
          "type": "tuple[]"
        }
      ],
      "name": "addGuardians",
      "outputs": [],
      "stateMutability": "nonpayable",
      "type": "function"
    },
    {
      "inputs": [],
      "name": "cancelPendingGuardians",
      "outputs": [],
      "stateMutability": "nonpayable",
      "type": "function"
    },
    {
      "inputs": [
        {
          "internalType": "uint256",
          "name": "hashId",
          "type": "uint256"
        }
      ],
      "name": "getGuardian",
      "outputs": [
        {
          "components": [
            {
              "internalType": "uint256",
              "name": "hashId",
              "type": "uint256"
            },
            {
              "internalType": "uint8",
              "name": "status",
              "type": "uint8"
            },
            {
              "internalType": "uint64",
              "name": "timestamp",
              "type": "uint64"
            }
          ],
          "internalType": "struct GuardianStorage.Guardian",
          "name": "",
          "type": "tuple"
        }
      ],
      "stateMutability": "view",
      "type": "function"
    },
    {
      "inputs": [
        {
          "internalType": "bool",
          "name": "includePendingAddition",
          "type": "bool"
        }
      ],
      "name": "getGuardians",
      "outputs": [
        {
          "components": [
            {
              "internalType": "uint256",
              "name": "hashId",
              "type": "uint256"
            },
            {
              "internalType": "uint8",
              "name": "status",
              "type": "uint8"
            },
            {
              "internalType": "uint64",
              "name": "timestamp",
              "type": "uint64"
            }
          ],
          "internalType": "struct GuardianStorage.Guardian[]",
          "name": "",
          "type": "tuple[]"
        }
      ],
      "stateMutability": "view",
      "type": "function"
    },
    {
      "inputs": [],
      "name": "guardianFacetVersion",
      "outputs": [
        {
          "internalType": "string",
          "name": "",
          "type": "string"
        }
      ],
      "stateMutability": "pure",
      "type": "function"
    },
    {
      "inputs": [
        {
          "internalType": "bool",
          "name": "includePendingAddition",
          "type": "bool"
        }
      ],
      "name": "numGuardians",
      "outputs": [
        {
          "internalType": "uint256",
          "name": "",
          "type": "uint256"
        }
      ],
      "stateMutability": "view",
      "type": "function"
    },
    {
      "inputs": [
        {
          "internalType": "uint256",
          "name": "hashId",
          "type": "uint256"
        }
      ],
      "name": "removeGuardian",
      "outputs": [
        {
          "internalType": "bool",
          "name": "",
          "type": "bool"
        }
      ],
      "stateMutability": "nonpayable",
      "type": "function"
    },
    {
      "inputs": [
        {
          "components": [
            {
              "internalType": "uint256",
              "name": "hashId",
              "type": "uint256"
            }
          ],
          "internalType": "struct IGuardianInternal.GuardianDTO[]",
          "name": "guardians",
          "type": "tuple[]"
        }
      ],
      "name": "removeGuardians",
      "outputs": [],
      "stateMutability": "nonpayable",
      "type": "function"
    },
    {
      "inputs": [
        {
          "components": [
            {
              "internalType": "uint256",
              "name": "hashId",
              "type": "uint256"
            }
          ],
          "internalType": "struct IGuardianInternal.GuardianDTO[]",
          "name": "guardians",
          "type": "tuple[]"
        }
      ],
      "name": "requireMajority",
      "outputs": [],
      "stateMutability": "view",
      "type": "function"
    },
    {
      "inputs": [
        {
          "components": [
            {
              "internalType": "uint256",
              "name": "hashId",
              "type": "uint256"
            }
          ],
          "internalType": "struct IGuardianInternal.GuardianDTO[]",
          "name": "guardians",
          "type": "tuple[]"
        }
      ],
      "name": "setInitialGuardians",
      "outputs": [],
      "stateMutability": "nonpayable",
      "type": "function"
    }
  ],
  "bytecode": "0x608060405234801561001057600080fd5b50611c1f806100206000396000f3fe608060405234801561001057600080fd5b50600436106100a95760003560e01c8063310762171161007157806331076217146101255780634cc499d7146101485780635136bbda14610168578063987258191461017b578063a4a9ba73146100ea578063c3b9d44f146101a257600080fd5b80630206b440146100ae57806305b9e533146100d75780631e74ef10146100ec57806327db3a52146100ff5780632d31815c14610112575b600080fd5b6100c16100bc36600461168b565b6101c3565b6040516100ce91906116ad565b60405180910390f35b6100ea6100e5366004611766565b6101d4565b005b6100ea6100fa3660046117bd565b6101e3565b6100ea61010d366004611766565b6102b3565b6100ea610120366004611766565b610354565b6101386101333660046118a8565b6103fd565b60405190151581526020016100ce565b61015b6101563660046118a8565b610411565b6040516100ce91906118c1565b6101386101763660046118a8565b6104a9565b6040805180820182526005815264302e302e3160d81b602082015290516100ce91906118ee565b6101b56101b036600461168b565b6104bd565b6040519081526020016100ce565b60606101ce826104c8565b92915050565b6101de8282610637565b505050565b7f8a22373512790c48b83a1fe2efdd2888d4a917bcdc24d0adf63e60f671680460546001600160a01b031633146102615760405162461bcd60e51b815260206004820152601d60248201527f4f776e61626c653a2073656e646572206d757374206265206f776e657200000060448201526064015b60405180910390fd5b61026b82826102b3565b60005b83518110156102ac5761029a8585838151811061028d5761028d611943565b60200260200101516107fe565b806102a48161196f565b91505061026e565b5050505050565b6102bd828261086a565b60005b818110156101de5760008383838181106102dc576102dc611943565b9050602002016000013590506102f1816103fd565b61033d5760405162461bcd60e51b815260206004820181905260248201527f477561726469616e3a204641494c45445f544f5f4144445f475541524449414e6044820152606401610258565b50806103488161196f565b9150506102c0565b5050565b61035e82826109e2565b60005b818110156101de57600083838381811061037d5761037d611943565b905060200201600001359050610392816104a9565b6103ea5760405162461bcd60e51b815260206004820152602360248201527f477561726469616e3a204641494c45445f544f5f52454d4f56455f475541524460448201526224a0a760e91b6064820152608401610258565b50806103f58161196f565b915050610361565b600061040882610a2f565b6101ce82610a8e565b604080516060810182526000808252602082018190529181018290529061043783610bb3565b9050600081116104895760405162461bcd60e51b815260206004820152601c60248201527f477561726469616e3a20475541524449414e5f4e4f545f464f554e44000000006044820152606401610258565b6000610496600183611988565b90506104a181610bd2565b949350505050565b60006104b482610c6f565b6101ce82610d69565b60006101ce82610e57565b60606000600080516020611bca833981519152600101546001600160401b038111156104f6576104f66117a7565b60405190808252806020026020018201604052801561054157816020015b60408051606081018252600080825260208083018290529282015282526000199092019101816105145790505b5090506000805b7f45859138d8d663d06b2ba6d2358a3e0ff977596ccb2ad702c7f89e6584675d355481101561062e576000600080516020611bca833981519152600101828154811061059657610596611943565b600091825260209182902060408051606081018252600293909302909101805483526001015460ff8116938301939093526101009092046001600160401b03169181019190915290506105e98187610ec6565b1561061b578084848151811061060157610601611943565b602002602001018190525082806106179061196f565b9350505b50806106268161196f565b915050610548565b50909392505050565b6000818103610648575060006101ce565b60008061065560006104c8565b905060008151116106975760405162461bcd60e51b815260206004820152600c60248201526b4e4f5f475541524449414e5360a01b6044820152606401610258565b60005b848110156107e057828686838181106106b5576106b5611943565b90506020020160000135116107045760405162461bcd60e51b815260206004820152601560248201527424a72b20a624a22fa9a4a3a722a929afa7a92222a960591b6044820152606401610258565b85858281811061071657610716611943565b9050602002016000013592506000805b83518110156107895787878481811061074157610741611943565b9050602002016000013584828151811061075d5761075d611943565b602002602001015160000151036107775760019150610789565b806107818161196f565b915050610726565b50806107cd5760405162461bcd60e51b815260206004820152601360248201527229a4a3a722a92fa727aa2fa3aaa0a92224a0a760691b6044820152606401610258565b50806107d88161196f565b91505061069a565b5080516107f1600182811c9061199f565b9094101595945050505050565b6108088282610eef565b6000828152600080516020611baa8339815191526020526040812060010154604080518481526020810183905291925084917f03fd27265b7dd1f55558bedc22a58fa3b10afb1be776e614bd5a7ba7b9499406910160405180910390a2505050565b818160038110156108bd5760405162461bcd60e51b815260206004820152601f60248201527f477561726469616e3a204d494e5f475541524449414e535f4e4f545f4d4554006044820152606401610258565b8383600a8111156109105760405162461bcd60e51b815260206004820181905260248201527f477561726469616e3a204d41585f475541524449414e535f45584345454445446044820152606401610258565b60005b858110156109d95786868281811061092d5761092d611943565b905060200201600001356000036109565760405162461bcd60e51b8152600401610258906119b7565b61097a87878381811061096b5761096b611943565b90506020020160000135610bb3565b156109c75760405162461bcd60e51b815260206004820152601960248201527f477561726469616e3a20475541524449414e5f455849535453000000000000006044820152606401610258565b806109d18161196f565b915050610913565b50505050505050565b806103505760405162461bcd60e51b815260206004820181905260248201527f477561726469616e3a204e4f5f475541524449414e535f544f5f52454d4f56456044820152606401610258565b6000610a3b6001610e57565b9050600a8111156103505760405162461bcd60e51b815260206004820152601c60248201527f477561726469616e3a20544f4f5f4d414e595f475541524449414e53000000006044820152606401610258565b600080610a9b6001610e57565b9050600a8110610aed5760405162461bcd60e51b815260206004820152601c60248201527f477561726469616e3a20544f4f5f4d414e595f475541524449414e53000000006044820152606401610258565b426003821115610b0757610b046203f4804261199f565b90505b6000610b22600080516020611bca83398151915286846111c7565b905080610b715760405162461bcd60e51b815260206004820181905260248201527f477561726469616e3a204641494c45445f544f5f4144445f475541524449414e6044820152606401610258565b847ffcdfd5aeb97f499ca134ed43f010f2a4f5b0ab73d317ac27246a066a050a73af83604051610ba391815260200190565b60405180910390a2949350505050565b6000908152600080516020611bca833981519152602052604090205490565b60408051606081018252600080825260208201819052918101919091527f45859138d8d663d06b2ba6d2358a3e0ff977596ccb2ad702c7f89e6584675d35805483908110610c2257610c22611943565b600091825260209182902060408051606081018252600293909302909101805483526001015460ff8116938301939093526101009092046001600160401b03169181019190915292915050565b80600181600003610c925760405162461bcd60e51b8152600401610258906119b7565b6000610c9d83610bb3565b905060008111610cef5760405162461bcd60e51b815260206004820152601c60248201527f477561726469616e3a20475541524449414e5f4e4f545f464f554e44000000006044820152606401610258565b6000610cfc600183611988565b90506000610d0982610bd2565b9050610d158185610ec6565b610d615760405162461bcd60e51b815260206004820152601d60248201527f477561726469616e3a20475541524449414e5f4e4f545f4143544956450000006044820152606401610258565b505050505050565b600080610d796203f4804261199f565b90506000610d8684610bb3565b90506000610d95600183611988565b90506000600080516020611bca8339815191526001018281548110610dbc57610dbc611943565b600091825260209182902060408051606081018252600293909302909101805483526001015460ff8116938301939093526101009092046001600160401b0316918101919091529050610e0f818561127e565b9350857f2264fa092e5819982f4edca5b7e9c6318a16dc3e03673510429c078656dea45c85604051610e4391815260200190565b60405180910390a250600195945050505050565b600080610e63836104c8565b905060005b8151811015610ebf576000828281518110610e8557610e85611943565b60200260200101519050610e998186610ec6565b15610eac5783610ea88161196f565b9450505b5080610eb78161196f565b915050610e68565b5050919050565b6000610ed1836113ae565b80610ee85750818015610ee85750610ee8836113d9565b9392505050565b6000828152600080516020611baa8339815191526020526040902060028101549082907f30644e72e131a029b85045b68181585d2833e84879b9709143e1f593f00000018210610fa75760405162461bcd60e51b815260206004820152603860248201527f496e6372656d656e74616c42696e617279547265653a206c656166206d75737460448201527f206265203c20534e41524b5f5343414c41525f4649454c4400000000000000006064820152608401610258565b6000858152600080516020611baa833981519152602052604090205460ff16610fd1906002611add565b831061102b5760405162461bcd60e51b815260206004820152602360248201527f496e6372656d656e74616c42696e617279547265653a207472656520697320666044820152621d5b1b60ea1b6064820152608401610258565b60005b6000868152600080516020611baa833981519152602052604090205460ff1660ff168160ff16101561118d57611065600285611b02565b6000036110c7576040805180820182528481526000888152600080516020611baa833981519152602090815283822060ff86168084526003909101825284832054828501528252600486019052919091206110c1916002611641565b506110e2565b60ff8116600090815260048301602052604090208390600101555b60ff81166000908152600480840160205260409182902091516314d2f97b60e11b815273__$6d81c1d65787d697695b56adedd76022ba$__926329a5f2f69261112b9201611b16565b602060405180830381865af4158015611148573d6000803e3d6000fd5b505050506040513d601f19601f8201168201806040525081019061116c9190611b47565b9250611179600285611b60565b93508061118581611b74565b91505061102e565b506000858152600080516020611baa833981519152602052604090206001018290556102ac600080516020611baa83398151915286611403565b60018084015460009182906111dd90839061199f565b9050856001016040518060600160405280878152602001600160ff1681526020016112078761142e565b6001600160401b039081169091528254600181810185556000948552602080862085516002909402019283558085015192820180546040968701519095166101000268ffffffffffffffffff1990951660ff9094169390931793909317909155888452908990529120919091559150509392505050565b6000611289836113ae565b1561131b576000602084015261129e8261142e565b6001600160401b0316604084015282516112c890600080516020611bca8339815191525b9061148b565b6113145760405162461bcd60e51b815260206004820152601b60248201527f477561726469616e3a20554e45585045435445445f524553554c5400000000006044820152606401610258565b50806101ce565b611324836113d9565b156113a5576000602084018190526040840152825161135190600080516020611bca8339815191526112c2565b61139d5760405162461bcd60e51b815260206004820152601b60248201527f477561726469616e3a20554e45585045435445445f524553554c5400000000006044820152606401610258565b5060006101ce565b50600092915050565b602081015160009060ff1660011480156101ce57505060400151426001600160401b03909116111590565b602081015160009060ff1660011480156101ce57505060400151426001600160401b039091161190565b600081815260208390526040812060020180546001929061142590849061199f565b90915550505050565b60006001600160401b038211156114875760405162461bcd60e51b815260206004820152601c60248201527f53616665436173743a2076616c756520646f6573206e6f7420666974000000006044820152606401610258565b5090565b600081815260208390526040812054806114e75760405162461bcd60e51b815260206004820152601d60248201527f477561726469616e3a20475541524449414e5f4e4f545f4558495354530000006044820152606401610258565b60006114f4600183611988565b90506001858101546115069190611988565b81146115e75760018086018054909161151e91611988565b8154811061152e5761152e611943565b906000526020600020906002020185600101828154811061155157611551611943565b600091825260208220835460029092020190815560019283018054918401805460ff19811660ff909416938417825591546001600160401b0361010091829004160268ffffffffffffffffff199092169092171790559086018054849288929091859081106115c2576115c2611943565b9060005260206000209060020201600001548152602001908152602001600020819055505b846001018054806115fa576115fa611b93565b60008281526020808220600260001994909401938402018281556001908101805468ffffffffffffffffff1916905592909355958652959052505060408220919091555090565b826002810192821561166f579160200282015b8281111561166f578251825591602001919060010190611654565b506114879291505b808211156114875760008155600101611677565b60006020828403121561169d57600080fd5b81358015158114610ee857600080fd5b6020808252825182820181905260009190848201906040850190845b8181101561170f576116fc8385518051825260208082015160ff16908301526040908101516001600160401b0316910152565b92840192606092909201916001016116c9565b50909695505050505050565b60008083601f84011261172d57600080fd5b5081356001600160401b0381111561174457600080fd5b6020830191508360208260051b850101111561175f57600080fd5b9250929050565b6000806020838503121561177957600080fd5b82356001600160401b0381111561178f57600080fd5b61179b8582860161171b565b90969095509350505050565b634e487b7160e01b600052604160045260246000fd5b600080600080606085870312156117d357600080fd5b843593506020808601356001600160401b03808211156117f257600080fd5b818801915088601f83011261180657600080fd5b813581811115611818576118186117a7565b8060051b604051601f19603f8301168101818110858211171561183d5761183d6117a7565b6040529182528381018501918581018c84111561185957600080fd5b948601945b83861015611875578535815294860194860161185e565b5097505050604088013592508083111561188e57600080fd5b505061189c8782880161171b565b95989497509550505050565b6000602082840312156118ba57600080fd5b5035919050565b8151815260208083015160ff16908201526040808301516001600160401b031690820152606081016101ce565b600060208083528351808285015260005b8181101561191b578581018301518582016040015282016118ff565b8181111561192d576000604083870101525b50601f01601f1916929092016040019392505050565b634e487b7160e01b600052603260045260246000fd5b634e487b7160e01b600052601160045260246000fd5b60006001820161198157611981611959565b5060010190565b60008282101561199a5761199a611959565b500390565b600082198211156119b2576119b2611959565b500190565b60208082526022908201527f477561726469616e3a20475541524449414e5f484153485f49445f49535f5a45604082015261524f60f01b606082015260800190565b600181815b80851115611a34578160001904821115611a1a57611a1a611959565b80851615611a2757918102915b93841c93908002906119fe565b509250929050565b600082611a4b575060016101ce565b81611a58575060006101ce565b8160018114611a6e5760028114611a7857611a94565b60019150506101ce565b60ff841115611a8957611a89611959565b50506001821b6101ce565b5060208310610133831016604e8410600b8410161715611ab7575081810a6101ce565b611ac183836119f9565b8060001904821115611ad557611ad5611959565b029392505050565b6000610ee860ff841683611a3c565b634e487b7160e01b600052601260045260246000fd5b600082611b1157611b11611aec565b500690565b60408101818360005b6002811015611b3e578154835260209092019160019182019101611b1f565b50505092915050565b600060208284031215611b5957600080fd5b5051919050565b600082611b6f57611b6f611aec565b500490565b600060ff821660ff8103611b8a57611b8a611959565b60010192915050565b634e487b7160e01b600052603160045260246000fdfe18009942081384ebf013f551c6956278f8f7e6b5ba58de96a877e7d2e169e67045859138d8d663d06b2ba6d2358a3e0ff977596ccb2ad702c7f89e6584675d34a264697066735822122029a2513c9bb4a4d3fcb5e0ca912ee9e0d22533dbde90dab234f3f381f1cf8abe64736f6c634300080e0033",
  "linkReferences": {
    "contracts/utils/cryptography/Hashes.sol": {
      "PoseidonT3": [
        {
          "length": 20,
          "start": 4391
        }
      ]
    }
  },
  "deployedLinkReferences": {
    "contracts/utils/cryptography/Hashes.sol": {
      "PoseidonT3": [
        {
          "length": 20,
          "start": 4359
        }
      ]
    }
  }
}